{
  "contractName": "studentKhalid",
  "abi": [
    {
      "constant": false,
      "inputs": [
        {
          "internalType": "int256",
          "name": "_age",
          "type": "int256"
        },
        {
          "internalType": "string",
          "name": "_name",
          "type": "string"
        },
        {
          "internalType": "bool",
          "name": "_student",
          "type": "bool"
        }
      ],
      "name": "setuserdata",
      "outputs": [],
      "payable": false,
      "stateMutability": "nonpayable",
      "type": "function"
    },
    {
      "constant": true,
      "inputs": [],
      "name": "getuserdata",
      "outputs": [
        {
          "internalType": "int256",
          "name": "",
          "type": "int256"
        },
        {
          "internalType": "string",
          "name": "",
          "type": "string"
        },
        {
          "internalType": "bool",
          "name": "",
          "type": "bool"
        }
      ],
      "payable": false,
      "stateMutability": "view",
      "type": "function"
    }
  ],
  "bytecode": "0x608060405234801561001057600080fd5b50610379806100206000396000f3fe608060405234801561001057600080fd5b50600436106100365760003560e01c80637215a3081461003b578063a0b5ff42146100d0575b600080fd5b6100436101a1565b604051808481526020018060200183151515158152602001828103825284818151815260200191508051906020019080838360005b83811015610093578082015181840152602081019050610078565b50505050905090810190601f1680156100c05780820380516001836020036101000a031916815260200191505b5094505050505060405180910390f35b61019f600480360360608110156100e657600080fd5b81019080803590602001909291908035906020019064010000000081111561010d57600080fd5b82018360208201111561011f57600080fd5b8035906020019184600183028401116401000000008311171561014157600080fd5b91908080601f016020809104026020016040519081016040528093929190818152602001838380828437600081840152601f19601f820116905080830192505050505050509192919290803515159060200190929190505050610262565b005b60006060600080546001600260009054906101000a900460ff16818054600181600116156101000203166002900480601f0160208091040260200160405190810160405280929190818152602001828054600181600116156101000203166002900480156102505780601f1061022557610100808354040283529160200191610250565b820191906000526020600020905b81548152906001019060200180831161023357829003601f168201915b50505050509150925092509250909192565b82600081905550816001908051906020019061027f92919061029f565b5080600260006101000a81548160ff021916908315150217905550505050565b828054600181600116156101000203166002900490600052602060002090601f016020900481019282601f106102e057805160ff191683800117855561030e565b8280016001018555821561030e579182015b8281111561030d5782518255916020019190600101906102f2565b5b50905061031b919061031f565b5090565b61034191905b8082111561033d576000816000905550600101610325565b5090565b9056fea265627a7a723158208432c62580f7afafcfcd34e1d0d73d675bcff4109872d41f244d2653e6a787ba64736f6c63430005100032",
  "source": "// SPDX-License-Identifier: MIT\r\npragma solidity >=0.4.22 <0.9.0;\r\n\r\n\r\ncontract studentKhalid{\r\n\r\n    int private age;\r\n    string private name;\r\n    bool private student_or_not;\r\n    address private owner;\r\n\r\n    function setuserdata(int _age,string memory _name,bool _student)public{\r\n\r\n        age = _age ;\r\n        name = _name ;\r\n        student_or_not = _student ;\r\n\r\n\r\n\r\n    }\r\n\r\n\r\n    function getuserdata()public view returns (int,string memory,bool){\r\n\r\n        return(age,name,student_or_not);\r\n\r\n\r\n    }\r\n\r\n\r\n\r\n\r\n\r\n\r\n\r\n\r\n\r\n\r\n}",
  "sourcePath": "E:\\Projects_solidity\\third_project\\contracts\\assignment.sol",
  "compiler": {
    "name": "solc",
    "version": "0.5.16+commit.9c3226ce.Emscripten.clang"
  },
  "schemaVersion": "3.4.2",
  "updatedAt": "2021-09-12T19:07:58.361Z",
  "networkType": "ethereum",
  "devdoc": {
    "methods": {}
  },
  "userdoc": {
    "methods": {}
  }
}